:100000000C9446000C945D000C945D000C945D0013
:100010000C945D000C945D000C945D000C945D00EC
:100020000C945D000C945D000C945D000C945D00DC
:100030000C945D000C945D000C945D000C945D00CC
:100040000C945D000C945D000C945D000C945D00BC
:100050000C945D000C945D000C945D000C945D00AC
:100060000C945D000C945D000C945D000C945D009C
:100070000C945D000C945D000C945D000C945D008C
:100080000C945D000C945D000C945D0011241FBE67
:10009000CFEFD0E4DEBFCDBF11E0A0E0B1E0E2E5FC
:1000A000F1E000E00BBF02C007900D92AE30B10747
:1000B000D9F70E9476000C94A7000C940000CF930F
:1000C000C82F8A3019F48DE00E945F008091C00033
:1000D00085FFFCCFC093C60080E090E0CF910895EB
:1000E000EAE7F0E08081806E808308958FEF84B925
:1000F00015B88AB91BB811B882B90E947000209156
:100100007800309179002432310510F480E001C08C
:1001100081E02834310508F082602C36310508F082
:1001200084602039310508F08860243B310508F0EF
:100130008061283D310508F080622C3F310508F0D0
:1001400080642032314008F0806885B9D8CFF894B7
:02015000FFCFDF
:0E01520000000002000000005F00000000003E
:00000001FF
